:100000009EC00000C4C00000C2C00000C0C000000C
:10001000BEC00000BCC00000BAC00000B8C00000F4
:10002000B6C00000B4C00000B2C00000B0C0000004
:10003000AEC00000ACC00000AAC00000A8C0000014
:10004000A6C00000A4C00000A2C00000A0C0000024
:100050009EC000000C9472109AC000000C941E10F8
:100060000C94E70F94C0000092C0000090C0000004
:100070008EC000007061747465726E00706978657E
:100080006C73006F666600646563617900737573F5
:100090007461696E0061747461636B0064656E7392
:1000A00069747900736D6F64650065666665637475
:1000B00000636D6F6465006F7264657200220022D8
:1000C000002B41542B544F5049433D22004572723E
:1000D0006F72004F4B002B574946492044697363A8
:1000E0006F6E6E6563746564002B57494649204303
:1000F0006F6E6E6563746564002B4D5154542044DB
:100100006973636F6E6E6563746564002B4D515443
:100110005420436F6E6E6563746564000D0A00536E
:10012000797374656D20696E697420646F6E652ED5
:100130000D0A52656164790D0A00EB0E5F101124FF
:100140001FBECFEFD4E0DEBFCDBF11E0A0E0B1E035
:10015000E6E4F6E202C005900D92A431B107D9F7AA
:1001600023E0A4E1B1E001C01D92A738B207E1F796
:1001700010E0CFE9D0E004C02197FE010E94D31126
:10018000CD39D107C9F70E94C40E0C94211338CF82
:1001900020910401FC01213011F0808108958181BA
:1001A000089520910401FC01213011F0818108950E
:1001B00080810895FC018281089520910401FC0151
:1001C000213011F060830895618308952091040126
:1001D000FC01213011F06183089560830895FC01D2
:1001E00062830895FC0180910401813021F4118221
:1001F0001082128208951082118212820895FC01E9
:1002000080910401813021F4618340832283089529
:100210006083418322830895FC01DB018091040106
:10022000813051F411968C91119781838C91808348
:1002300012968C91828308958C91808311968C9173
:100240001197818312968C9182830895FB012091EE
:100250000401213059F42181DC0111962C9311976E
:1002600020812C932281FC01228308952081DC01CE
:100270002C93218111962C932281FC0122830895D5
:100280000F931F93CF93DF931F92CDB7DEB78C01EF
:100290004983C2DF809104014981D801813081F511
:1002A00011966C9170E0242F30E0C9010E945D111D
:1002B000EFEFF0E0BF010E946E11D80111966C9330
:1002C00011974C91642F70E0C9010E945D11BF012C
:1002D0000E946E11F8016083D80112966C9170E053
:1002E000C9010E945D116FEF70E00E946E11F8016C
:1002F0006283C8010F90DF91CF911F910F910895F4
:100300006C9170E0242F30E0C9010E945D11EFEF85
:10031000F0E0BF010E946E11D8016C9311964C91D0
:10032000642F70E0C9010E945D11BF010E946E112F
:10033000F8016183D1CFEF92FF920F931F93CF9378
:10034000DF938C01FC01E55BFF4F86E9DF011D9225
:100350008A95E9F7D8018D919C91892B21F17F0134
:10036000C0E0D0E019C070E0CE010E946E11BC0167
:10037000660F771F680F791F615F7F4F600F711FD6
:10038000C70164DF2196F3E0EF0EF11CD8018D91D7
:100390009C91C817D90738F4F8016685623018F7C0
:1003A00080E090E0E4CFF801E151FF4F81E08083ED
:1003B000DF91CF911F910F91FF90EF900895CF9310
:1003C000DF93EC01C151DF4F2881222331F062E33A
:1003D00070E0855B9F4F95D51882DF91CF9108958E
:1003E000FC01855B9F4F26E9DC011D922A95E9F708
:1003F000DF01A251BF4F24812C936081718181C59F
:100400008F929F92AF92BF92CF92DF92EF92FF9224
:100410000F931F93CF93DF9300D01F92CDB7DEB71A
:100420007C015C018EEEA80EB11CF501908191500B
:100430009083911162C0F70160817181611571052E
:1004400009F451C047019BE4890E911C640100E04E
:1004500010E02FC0782F6627729562956F7067271E
:100460007F7067276115E1E07E0781F1462FF70174
:10047000668570E0C8010E946E11BC01660F771F8F
:10048000680F791F615F7F4F6E0D7F1DCE01019652
:10049000F7DEBE016F5F7F4FC601D8DE0F5F1F4FD3
:1004A000F70160817181F3E0CF0ED11C06171707A9
:1004B000F0F40E941B12DC01CB018F719927AA274F
:1004C000B078B7FD05C08131910520F24FEFCFCF55
:1004D0000197A109B109806E9F6FAF6FBF6F019641
:1004E000A11DB11DF0CFC701855B9F4F4C01C40119
:1004F00008D5F7018481F50180830F900F900F904C
:10050000DF91CF911F910F91FF90EF90DF90CF90EF
:10051000BF90AF909F908F900895AF92BF92CF926F
:10052000DF92EF92FF920F931F93CF93DF9300D050
:100530001F92CDB7DEB76C015C018FE0A80EB11C35
:1005400085017601EFE3EE0EF11CC8014BDE0D5F75
:100550001F4F0E151F05C9F782E390E0F601918346
:10056000808322E022871386148624E630E03187D8
:1005700020872AE030E03383228315821482978318
:10058000868381E2858783E0868720E040E06FEF05
:10059000CE01019634DEBE016F5F7F4FC50156DE8E
:1005A00020E04FEF60E0CE01019629DEBE016F5FD3
:1005B0007F4FC60142964ADE2FEF40E060E0CE0159
:1005C00001961DDEBE016F5F7F4FC60145963EDE80
:1005D0000F900F900F90DF91CF911F910F91FF908F
:1005E000EF90DF90CF90BF90AF900895FC016585AC
:1005F00070E084E690E00E94821162307105A4F000
:10060000DF01A75BBF4F6D937C93DF01AB5BBF4FF7
:1006100011961C921E92129611961C921E92A9552A
:10062000BF4F84818C93089582E090E0DF01A75B47
:10063000BF4F8D939C93E9CF2F923F924F925F9241
:100640006F927F928F929F92AF92BF92CF92DF92E2
:10065000EF92FF920F931F93CF93DF9300D000D0C0
:100660001F92CDB7DEB78C011C018EEE280E311C17
:10067000F10190819111D5C0F8018385813009F491
:1006800076C0F801608171816115710509F4CCC0F3
:100690003801FBE46F0E711C5301C12CD12CC80131
:1006A000875B9F4F9D838C83F801EB5BFF4F4F016E
:1006B00002977C0128019FE0490E511C34C0681B41
:1006C00070E0F801868197816817790708F043C0C8
:1006D0008FEF90E00E948211462FB201CE01019669
:1006E000CFDDBE016F5F7F4FC501B0DDF7018081B7
:1006F0009181019691838083EC81FD8120813181FC
:100700008217930718F0F70111821082FFEFCF1ABA
:10071000DF0A83E0A80EB11CF80160817181C61662
:10072000D70608F08BC0F70180819181F4016081C8
:1007300071818617970709F470C08617970708F428
:10074000BECF861B682F70E0F80182819381681705
:10075000790708F4BDCF20E040E060E0CE010196CB
:100760004EDDBE016F5F7F4FC50170DDBFCF608181
:1007700071816115710509F46DC03801FBE46F0EDC
:10078000711C6301E12CF12CC8018B5B9F4F4C0164
:10079000F401808191818E0D9F1DF801668570E0C6
:1007A0000E946E11BC01660F771F680F791F615F91
:1007B0007F4F600F711FC60149DDFFEFEF1AFF0A7F
:1007C000F80160817181F3E0CF0ED11CE616F706C7
:1007D000F8F2F40180819181019691838083C301B5
:1007E00090D3F8018481F10180830F900F900F90D6
:1007F0000F900F90DF91CF911F910F91FF90EF908D
:10080000DF90CF90BF90AF909F908F907F906F9030
:100810005F904F903F902F900895B201C50116DD73
:1008200065CF91509083E1CFE75BFF4F208131810D
:10083000C801855B9F4F3C0134974F01F4018081D3
:1008400091810196918380838217930740F21182F0
:100850001082C5CFC801855B9F4F3C01EB5BFF4F0A
:100860004F01B7CFCF93DF93EC018E3C910510F091
:10087000CDECD0E00E941B1224E630E040E050E0D6
:100880000E94B7119B016115710551F06333710529
:1008900048F0E296CE01861B970BDF91CF91089529
:1008A00021E030E0C9018C0F9D1FDF91CF910895A9
:1008B000CF92DF92EF92FF920F931F93CF93DF932C
:1008C000EC016C018BE4C80ED11C86E9D6011D92A7
:1008D0008A95E9F7FE01EF51FF4F8DE0DF011D9290
:1008E0008A95E9F7FF9689E1DF011D928A95E9F77C
:1008F00088819981892B09F488C07E01FEEEEF0E74
:10090000F11C00E010E088859985ACDFD7018D935C
:100910007D010F5F1F4F288139810217130798F35C
:100920002115310509F465C0FE84E0E0F0E00F2DEB
:1009300010E00DC09295907F6FE08623DA01A05EF3
:10094000BE4F982B9C933196E217F307C1F0B1E0AC
:10095000BF1598F4CF01B8010E946E11982FAF0116
:10096000569547954C0F5D1FDA01A05EBE4F8C91E6
:10097000E0FDE0CF9F7060EFE0CF90E0F0CF6D85BD
:1009800070E0CF010E945D1164E670E00E946E117C
:100990007E01E7ECEE1AEEEFFE0AD7016D937C9331
:1009A0006115710551F18B010E941B12288139815B
:1009B00040E050E00E94B7116C0F7D1FFB01E25137
:1009C000FF4F8081882381F310820150110961F764
:1009D000F70160817181CE01E8D362E370E0C60166
:1009E000DF91CF911F910F91FF90EF90DF90CF900B
:1009F00088C2FE01E75CFE4F7F0181E090E0D701F5
:100A00008D939C9301E010E0CFCF79967F01F5CFD5
:100A10002F923F924F925F926F927F928F929F920E
:100A2000AF92BF92CF92DF92EF92FF920F931F93FC
:100A3000CF93DF9300D01F92CDB7DEB76C013C019E
:100A400025EC621A2EEF720AF30111821082FC016A
:100A500060817181CB016115710509F41CC15601DA
:100A60003EEEA30EB11C16018BE4280E311C410191
:100A700000E010E0412C5524539457C062956F70EC
:100A8000E62EF12CB801C60162D4882309F45FC0B8
:100A9000F301208131812F5F3F4F31832083F501A6
:100AA0004081442309F45AC04150F501408382300B
:100AB00009F46FC0833009F4A0C0813039F5F60124
:100AC000228133812115310509F1C201B9010E944A
:100AD0006E11C901841B91090E945D118F3F910520
:100AE00019F010F08FEF90E0B701660F771F6E0DD1
:100AF0007F1D615F7F4F6C0D7D1D482FCE010196DC
:100B0000BFDBBE016F5F7F4FC401A0DB0F5F1F4FD4
:100B1000FFEFAF1ABF0A23E0820E911CF60160813D
:100B200071810617170708F08BC0F801F695E79555
:100B3000EC0DFD1DE05EFE4F608100FD9FCF6F70EC
:100B4000E62EF12CB801C60102D48111A1CFF50126
:100B500080818823D9F281508083D8CF823009F4F4
:100B600043C0833011F1813089F6B701660F771FDA
:100B70006E0D7F1D615F7F4F6C0D7D1DC40166DBB7
:100B800042E0B801C601C3D3F6018481F501808338
:100B9000BDCFB701660F771F6E0D7F1D615F7F4F61
:100BA0006C0D7D1DC40152DBB1CF40E0B801C60120
:100BB000AED320E040E060E0CE01019620DBBE0134
:100BC0006F5F7F4FC40142DBF601808591854ADE6D
:100BD000F5018083F30180819181009709F496CF1C
:100BE00001979183808392CF43E0B801C6018FD3F0
:100BF000F6018681F501808389CFF6012681378150
:100C00002115310509F482CFC201B9010E946E118C
:100C1000C901841B91090E945D11A201481B590B57
:100C20004F3F510519F010F04FEF50E0B701660F3C
:100C3000771F6E0D7F1D615F7F4F6C0D7D1D5ECF39
:100C4000F30180819181F601E75CFE4F20813181C3
:100C50008217930740F4B901681B790BC601A5D22E
:100C6000F60160817181C1014CD10F900F900F90FE
:100C7000DF91CF911F910F91FF90EF90DF90CF9078
:100C8000BF90AF909F908F907F906F905F904F90AC
:100C90003F902F9008959601255B3F4F1901D3CFC8
:100CA00098E030E00BC0289A22E02A95F1F72898C6
:100CB00024E02A95F1F7660F915071F0232F67FF1A
:100CC000F2CF289A24E02A95F1F7289823E02A9574
:100CD000F1F7660F915091F79091C80097FD3CC0D5
:100CE00098E030E00BC0289A22E02A95F1F7289886
:100CF00024E02A95F1F7880F915071F0232F87FF98
:100D0000F2CF289A24E02A95F1F7289823E02A9533
:100D1000F1F7880F915091F78091C80087FD1CC0B2
:100D200088E020E00BC0289A92E09A95F1F7289885
:100D300094E09A95F1F7440F815071F0922F47FF9C
:100D4000F2CF289A94E09A95F1F7289893E09A9533
:100D5000F1F7440F815091F70895CF93DF93EC01A1
:100D600020DA282F98E080E00BC0289A32E03A95EC
:100D7000F1F7289834E03A95F1F7220F915071F08D
:100D8000382F27FFF2CF289A34E03A95F1F72898C8
:100D900033E03A95F1F7220F915091F78091C80016
:100DA00087FD42C0CE01F4D9282F98E040E00CC066
:100DB000342F289A32E03A95F1F7289834E03A95A2
:100DC000F1F7220F915071F027FFF2CF842F289A6C
:100DD00084E08A95F1F7289883E08A95F1F7220F4D
:100DE000915091F78091C80087FD1EC0CE01E2D9D5
:100DF00098E030E00BC0289A22E02A95F1F7289875
:100E000024E02A95F1F7880F915071F0232F87FF86
:100E1000F2CF289A24E02A95F1F7289823E02A9522
:100E2000F1F7880F915091F7DF91CF910895CF930B
:100E3000DF93EC01ADD9282F98E080E00BC0289A11
:100E400032E03A95F1F7289834E03A95F1F7220F1D
:100E5000915071F0382F27FFF2CF289A34E03A955D
:100E6000F1F7289833E03A95F1F7220F915091F776
:100E70008091C80087FD42C0CE0193D9282F98E009
:100E800040E00CC0342F289A32E03A95F1F72898C8
:100E900034E03A95F1F7220F915071F027FFF2CF2D
:100EA000842F289A84E08A95F1F7289883E08A9520
:100EB000F1F7220F915091F78091C80087FD1EC075
:100EC000CE0178D998E030E00BC0289A22E02A952C
:100ED000F1F7289824E02A95F1F7880F915071F0E6
:100EE000232F87FFF2CF289A24E02A95F1F728983C
:100EF00023E02A95F1F7880F915091F7DF91CF9178
:100F00000895BF92CF92DF92EF92FF920F931F93BB
:100F1000CF93DF938C016B0180910401811126C076
:100F2000BFB6F89461157105F1F0E8017B01EE0C94
:100F3000FF1CE60EF71EE00EF11E04C02396CE1530
:100F4000DF0589F0CE0109DF8091C80087FFF6CF69
:100F5000BFBEDF91CF911F910F91FF90EF90DF9077
:100F6000CF90BF900895BFBE80910401813089F772
:100F7000FFB6F894C114D10499F0E801C601880FB6
:100F8000991FC80ED91EC00ED11E04C02396CC15C1
:100F9000DD0531F0CE014BDF8091C80087FFF6CF31
:100FA000FFBED7CFCF93DF93EC016095653520F17D
:100FB0006A3A88F06A5A862F880F880F462F481B96
:100FC0004150862F880F680F20E0CE0118D9CE013E
:100FD000DF91CF9108956555862F880F880F262FB2
:100FE000281B2150462F440F460F60E0CE0107D941
:100FF000CE01DF91CF910895262F220F260F862F45
:10100000880F880F681B615040E0CE01F8D8CE01F0
:10101000DF91CF9108958F929F92AF92BF92CF921E
:10102000DF92EF92FF920F931F93CF93DF9300D045
:101030001F92CDB7DEB76C01DC016D917C9161151B
:10104000710509F43EC04C019BE4890E911C7401AA
:1010500000E010E0D601A151BF4F5D01F5016081B4
:10106000600FCE0101969EDFBE016F5F7F4FC7010B
:10107000EDD80F5F1F4FD6016D917C91B3E0EB0E61
:10108000F11C0617170750F3F50180818F5F8083ED
:10109000F601E251FF4FD60114968C918083C40172
:1010A00030DF0F900F900F90DF91CF911F910F9134
:1010B000FF90EF90DF90CF90BF90AF909F908F9078
:1010C0000895FC01E55BFF4F4F0181519F4F5C018B
:1010D000DBCFCF92DF92EF92FF920F931F93CF93CC
:1010E000DF937C011ADA67018BE4C80ED11CE6019C
:1010F00087010F511F4FCE0175D82396C017D10716
:10110000D1F70E94C910F701FF9660837183828333
:101110009383369611821082329711821082349610
:1011200082E090E09183808332969183808386E988
:10113000F60111928A95E9F7DF91CF911F910F91F6
:10114000FF90EF90DF90CF900895DC011A962C91DC
:10115000233051F128F4213031F1223031F4A8CB81
:10116000243081F0253009F43BC9FC01E55BFF4FD9
:1011700026E9DF011D922A95E9F7EC55FF4F81E042
:1011800080830895FC01E251FF4FDC0114962C91FD
:10119000208331961082E45AF10986E9DF011D921D
:1011A0008A95E9F70895C7C821CA8F929F92AF9296
:1011B000BF92CF92DF92EF92FF920F931F93CF9344
:1011C000DF93FC01C081D181209709F493C0DC0139
:1011D000A251BF4F40E050E000E010E0FA01F69568
:1011E000E795F695E795E80FF91FEF51FF4F20813E
:1011F00030E0FA01E370FF27EE0FFF1F02C03595C4
:101200002795EA95E2F7237029F42C91211102C069
:101210000F5F1F4F4F5F5F4F11964C175D07F1F641
:101220006115710509F466C00115110509F462C064
:10123000EC01C801861B970B9C012F5F3F4F4901B2
:10124000CE01855C9E4F5C0123E0C22ED12CEE24A2
:10125000E394F12C0E941B122881398140E050E078
:101260000E94B711FB01F695E795F695E795EC0F0F
:10127000FD1FEF51FF4F40819B0123703327220F49
:10128000331F842F90E0022E02C0959587950A9413
:10129000E2F78370F9F66C0F7D1FDB01A251BF4F9F
:1012A0008C918111D7CFC601022E01C0880F0A94FC
:1012B000EAF780954823C70101C0880F2A95EAF70D
:1012C000482B40838A819B818F3F910511F008F064
:1012D0008FEFFB01E251FF4F8083F5018081918107
:1012E0000196918380830815190521F00150110999
:1012F00009F0B0CFDF91CF911F910F91FF90EF9048
:10130000DF90CF90BF90AF909F908F900895FB019A
:10131000E370FF27EE0FFF1F43700E2E01C0440F36
:101320000A94EAF723E030E001C0220FEA95EAF7D9
:1013300076956795769567952095860F971FFC01A2
:10134000EF51FF4F80812823422B408308959B015A
:101350003695279536952795820F931FFC01EF51FF
:10136000FF4F808190E063707727660F771F02C080
:10137000959587956A95E2F7837008950F931F936B
:10138000CF93DF93EC018A85833009F443C0B8F42E
:10139000813009F43BC08230C9F4CE0139DBF9D683
:1013A000EF96DC01CB010A96A11DB11D88839983BC
:1013B000AA83BB83DF91CF911F910F910895843051
:1013C000D1F0853019F4CE011BD8E9CF8E0101513F
:1013D0001F4FF8018081882311F326E9CE01855B38
:1013E0009F4FFC0111922A95E9F762E370E089DDD5
:1013F000F8011082D4CFFE01E251FF4F808181506D
:1014000080838111CCCFCE0106DEC9CFCE010E94F0
:10141000DF01C5CFCE0110D9C2CFCF93DF93EC014E
:10142000B8D6FE01FF966083718382839383CE01D9
:101430008CDECE01DF91CF91A1CF0F931F93CF937D
:10144000DF93EC01A6D6FE01FF9600811181228177
:101450003381061717072807390728F0DF91CF9146
:101460001F910F910895CE01DF91CF911F910F91A0
:1014700085CFCF92DF92EF92FF920F931F93CF937E
:10148000DF936C01FB0180819181D60111969C93C1
:101490008E938281938113969C938E93129784816D
:1014A000958115969C938E931497868197811796B4
:1014B0009C938E9316978085918519969C938E9315
:1014C000189782851A968C931A9783851B968C930E
:1014D0001B9784851C968C931C9785851D968C93F1
:1014E0001D9786851E968C93E6012F968B01015FD2
:1014F0001F4F7601BFE3EB0EF11CB801CE010E9435
:10150000260123960D5F1F4FCE15DF05B1F7C601EB
:10151000DF91CF911F910F91FF90EF90DF90CF90CF
:1015200014CECF93DF93EC010E948D021FAEFE011B
:10153000E05CFF4FCE018C5B9F4F9183808332969E
:1015400080E890E091838083CC53DF4F198218822A
:10155000DF91CF910895FC01E05CFF4F61157105AB
:1015600089F071836083329640835183362F272F11
:10157000FC01EC53FF4F1182108260E070E0832F7A
:10158000922FBEC7AC014C5B5F4F5183408320E874
:1015900030E0329631832083342F252F40E850E00D
:1015A000E7CF6F927F928F929F92AF92BF92CF922E
:1015B000DF92EF92FF920F931F93CF93DF9300D0B0
:1015C00000D0CDB7DEB75C018B017A01FC0197AD8D
:1015D000906297AF67EB70E0C8016FD7892B09F471
:1015E0004DC0C70134D7982E80900401881589F129
:1015F000F5018685882369F18501015F1F4FE12C84
:10160000F12CC8010E94C800682FC8016C830E9499
:10161000D100C82EC8010E94DA00D82E9092040191
:101620006C81C8010E94DD006C2DC8010E94E6009B
:101630006D2DC8010E94EF0080920401FFEFEF1AA8
:10164000FF0A0D5F1F4FF501268530E0E216F30615
:10165000C0F2909204010F900F900F900F90DF91C5
:10166000CF911F910F91FF90EF90DF90CF90BF909F
:10167000AF909F908F907F906F90089561EB70E096
:10168000C8011BD7892B29F0C701E1D6F501838753
:10169000E2CF6AEA70E0C80110D7892B29F0C701B0
:1016A000D6D6F5018287D7CF64EA70E0C80105D7A6
:1016B000892B29F0C701CBD6F5018487CCCF6CE903
:1016C00070E0C801FAD6892B29F0C701C0D6F50110
:1016D0008587C1CF65E970E0C801EFD6892B31F06D
:1016E000C701B5D6F50193838283B5CF6DE870E06D
:1016F000C801E3D6892B31F0C701A9D6F50195833E
:101700008483A9CF67E870E0C801D7D6892B31F070
:10171000C7019DD6F501978386839DCF63E870E06E
:10172000C801CBD6892B31F0C70191D6F50191873D
:10173000808791CF6CE770E0C801BFD6892B31F06C
:10174000C70185D6F5019183808385CF64E770E07A
:10175000C801B3D6892B09F47ECF6501FFE0CF0E17
:10176000D11C712CE114F10409F439C0C7016FD602
:10177000682E6CE270E0C701CAD6009799F18C011F
:101780000F5F1F4FC80163D6982E6CE270E0C8014E
:10179000BED6009739F18C010F5F1F4FC80157D695
:1017A000882E6CE270E0C801B2D67C01892B19F05A
:1017B0008FEFE81AF80A282D492D662DCE010196E3
:1017C0000E94FF00BE016F5F7F4FC6010E9426018D
:1017D0007394E3E0CE0ED11CF0E17F12C3CFF5018C
:1017E000768639CFE12CF12CE6CFCF93DF93FC0145
:1017F00027AD25FF08C0EC01BC018AED91E039DE80
:101800008FAD8F7D8FAFDF91CF9108957F928F92B3
:101810009F92AF92BF92CF92DF92EF92FF920F937F
:101820001F93CF93DF938C01509A5898519A5998EF
:10183000529A5A9A539A5B9A68EE73E080E090E06D
:10184000DAD45298539840E052EC61E070E087E1BE
:1018500093E064D3599A68EE73E080E090E0CBD4D3
:10186000589A7894780124ECE20EF11CF701118269
:1018700010826801F2E4CF0ED11C005C1F4FF6010C
:101880004081518160E070E0F8018081918138D61B
:1018900080D44B015C01F8EB8F0EFBE09F1EA11C76
:1018A000B11C87E193E09FD2EC01712C2EC0C335AF
:1018B000D10529F0772029F11C161D0614F5CE015B
:1018C000E5D5892B21F4CE01E7D5892BC1F0F801AC
:1018D00020813181F70180819181AC014F5F5F4FA1
:1018E00051834083F901E80FF91FC083F801C081DB
:1018F000D1816FE171E0CE01E0D5892BD1F477245D
:10190000739487E193E06FD2EC0143D468157905B5
:101910008A059B0560F2DF91CF911F910F91FF9097
:10192000EF90DF90CF90BF90AF909F908F907F907F
:101930000895F6014081518160E070E0CE01E0D56C
:10194000F70111821082E7CF4F925F926F927F92E0
:101950008F929F92AF92BF92CF92DF92EF92FF92BF
:101960000F931F93CF93DF937C0187E193E03BD2EA
:10197000EC010FD42B013C0125E0420E511C611CEF
:10198000711CD7FDB9C0C701805C9F4F4C01870116
:101990000C531F4F670192E4C90ED11C12C0F8010D
:1019A00080819181F6012081318121503109821796
:1019B0009307D8F0EED32B013C0187E193E013D2DB
:1019C000EC01E7D3641575058605970520F51C160F
:1019D0001D062CF3F601808191810197F801208189
:1019E00031812817390748F3E5CFF401208131818F
:1019F000AC014F5F5F4FF80151834083F901E80F5D
:101A0000F91FC083C6D32B013C01E5E04E0E511CEB
:101A1000611C711CDFCFF401C080D180F601808190
:101A2000882309F469C0C0E0D0E0C7018C539F4F00
:101A30005C0186010C0F1D1F6CE171E0C8013DD5F2
:101A4000009709F453C0FC011082F401C080D180DA
:101A500086010C0F1D1FF80101900020E9F7CF014E
:101A6000801B910B0196C80FD91F6CE071E0C80173
:101A70001BD5892B29F5F70187AD826087AFF5016A
:101A800080819181C817D907A0F211821082F701D5
:101A9000EE5BFF4F4081518160E070E0C601DF9155
:101AA000CF911F910F91FF90EF90DF90CF90BF905B
:101AB000AF909F908F907F906F905F904F9020C5D8
:101AC00069EF70E0C801F0D4892B29F4F70187ADE4
:101AD0008D7F87AFD4CF69EE70E0C801E5D4892B44
:101AE000E1F4F70187AD846087AFC9CFF50140818C
:101AF0005181C417D50738F1DF91CF911F910F9114
:101B0000FF90EF90DF90CF90BF90AF909F908F901D
:101B10007F906F905F904F90089566ED70E0C801E0
:101B2000C3D4892B59F063ED70E0C801BDD4892B73
:101B300029F5F70187AD886087AFA1CFF70187ADA1
:101B40008B7F87AF9CCF4C1B5D0BB801C601CFD4F8
:101B5000F501808191818C1B9D0B91838083F7011E
:101B6000EE5BFF4F408151814C1B5D0BF401808186
:101B7000918160E070E08C0F9D1F91CF6DEC70E063
:101B8000C8019BD4892B29F0F70187AD806187AF0D
:101B900076CF61EC70E0C80190D4009709F46FCF64
:101BA0006C01FBE0CF0ED11CF80110826FEB70E0EE
:101BB000C60183D4009769F0FC0110828C010D5F8F
:101BC0001F4F6DEB70E0C80178D4009711F0FC0155
:101BD0001082A801B601C701E4DCF401C080D18005
:101BE0004ECF80918703909188038A3A954569F09A
:101BF0002F9A64E670E080E090E0FDD22F9864E6D2
:101C000070E080E090E0F7D2F3CF0895EF92FF927A
:101C10000F931F93CF93DF93EFB6F894882389F047
:101C2000F22E042F162FD82FC0E003C0CF5FCD17A0
:101C300041F04F2D602F812F33D89091C80097FF2E
:101C4000F5CFEFBEDF91CF911F910F91FF90EF90F5
:101C50000895AF92BF92CF92DF92EF92FF920F93CF
:101C60001F93CF93DF930023D9F0A22EB42E162F0B
:101C7000D82F6701E12CF12CC0E02A2D4B2D612FCC
:101C80008D2FC4DFC701B601B6D220E040E060E08E
:101C90008D2FBCDFC701B601AED2CF5FC013EDCF31
:101CA000DF91CF911F910F91FF90EF90DF90CF9038
:101CB000BF90AF90089581E094DF84EFE82EFF2479
:101CC000F39403E020E240E060E082E3C2DF46E913
:101CD00050E065E272E084E191E03DDC84E191E076
:101CE00095DD57D26B017C0128E8C20E23E1D21E9C
:101CF000E11CF11C07C08091530181FD09C084E102
:101D000091E022DE46D26C157D058E059F0598F385
:101D100040D26B017C0128E8C20E23E1D21EE11CF7
:101D2000F11C07C08091530181FF09C084E191E05B
:101D30000BDE2FD26C157D058E059F0598F340E0D4
:101D400050E060E070E084E191E005DC8AED91E034
:101D500064DB84E191E0F8DD84E191E046DD8AED29
:101D600091E06BDB16D2C616D706E806F90688F7AF
:101D700081E037DF0ED26B017C0124EFC20E21E03F
:101D8000D21EE11CF11CE5CF5ED2279A2F9A209A31
:101D9000289A509A5898519A599868EE73E080E0C2
:101DA00090E029D284EFE82EFF24F39403E020E0B2
:101DB00040E060E282E34DDF8AEA95E59093880394
:101DC000809387037894209A20E040E060E086E9E1
:101DD0001DDF82E370DF62E370E08AED91E079D984
:101DE00084E191E09ECB4FB7F894FC01EC59FF4F92
:101DF0002081DC01AB59BF4F3C91231771F030E0DB
:101E0000DC01A20FB31F94968C912F5F3F4F2F736D
:101E10003327208390E04FBF08958FEF9FEFFBCFD4
:101E2000CF93DF93FC017FB7F894DC01AB59BF4F30
:101E30009C91292F30E0A9014F5F5F4F4F735527C9
:101E4000EF01CC59DF4F8881841749F0E20FF31F6F
:101E500064A34C9381E07FBFDF91CF91089580E030
:101E60007FBFDF91CF910895FC014FB7F89422A175
:101E700083A1281771F030E0DF01A20FB31F129683
:101E80008C912F5F3F4F2F71332722A390E04FBFDC
:101E900008958FEF9FEFFBCFFC015FB7F89483A10C
:101EA00090E09C012F5F3F4F2F71332772A1721773
:101EB000D9F0DF01A80FB91F12966C9323A35FBF5F
:101EC00081E0EA59FF4F908190FD0DC091609083B1
:101ED0009091C90090629093C9009091C80090645D
:101EE0009093C800089508955FBF411103C080E03A
:101EF000E8CF4FBF4FB7F89483A190E09C012F5FCC
:101F00003F4F2F7132A12317A1F3DF01A80FB91F93
:101F100012966C9323A34FBF81E0D3CFCF92DF9271
:101F2000EF92FF926A017B014115514E61057105E7
:101F3000D1F08091C80082608093C80060E079E0B1
:101F40008DE390E0A7019601F0D1DA01C901019774
:101F5000A109B109B695A795979587959C0121157B
:101F600080E13807B0F08091C8008D7F8093C80071
:101F700060E874E88EE190E0A7019601D6D1DA011D
:101F8000C9010197A109B109B695A79597958795BC
:101F90009C013093CD002093CC008091C9008061DA
:101FA0008093C9008091C90088608093C9008091A6
:101FB000C90080688093C9008091C9008F7D80939B
:101FC000C9007894FF90EF90DF90CF9008951F9212
:101FD0000F920FB60F9211242F933F938F939F93DD
:101FE000EF93FF932FB7F8948091390390913A03C0
:101FF0008917C1F090E0FC01E95EFC4F3281019647
:102000008F719927809339032FBF3093CE00FF91B2
:10201000EF919F918F913F912F910F900FBE0F9055
:102020001F9018952FBF8091C9008F7D8093C900A4
:1020300080917D038E7F80937D03E9CF1F920F9265
:102040000FB60F9211242F933F934F935F936F938B
:102050008F939F93EF93FF938091C80082FD18C0E8
:102060006091CE004FB7F89480917C0390E09C0182
:102070002F5F3F4F2F73332750917B035217C1F0CF
:10208000FC01E95EFC4F64A320937C034FBF02C0B8
:102090008091CE00FF91EF919F918F916F915F9111
:1020A0004F913F912F910F900FBE0F901F90189559
:1020B0004FBF80917D03826080937D03EBCFE7E18A
:1020C000F3E013A212A210927C0310927B038BE028
:1020D00091E091838083EDE7F3E080818E7F8D7FB7
:1020E000808308951F920F920FB60F9211242F93A1
:1020F0003F934F935F936F937F938F939F93AF9390
:10210000BF93EF93FF9380917F0390918003A09101
:102110008103B091820330917E0323E0230F2D379A
:10212000A0F126E8230F0296A11DB11D20937E0386
:1021300080937F0390938003A0938103B0938203E5
:102140008091830390918403A0918503B0918603CD
:102150000196A11DB11D8093830390938403A093E6
:102160008503B093860399D0FF91EF91BF91AF9112
:102170009F918F917F916F915F914F913F912F919F
:102180000F900FBE0F901F9018950196A11DB11DC5
:10219000CDCF2FB7F89460917F0370918003809129
:1021A0008103909182032FBF08953FB7F8948091E7
:1021B000830390918403A0918503B091860326B593
:1021C000A89B05C02F3F19F00196A11DB11D3FBF6F
:1021D000BA2FA92F982F8827820F911DA11DB11DFD
:1021E000BC01CD01660F771F881F991F660F771FEF
:1021F000881F991F0895CF92DF92EF92FF92CF939D
:10220000DF936B017C01D1DFEB01C114D104E10448
:10221000F10491F0CADF6C1B7D0B683E7340D0F374
:1022200081E0C81AD108E108F108C851DC4FC11497
:10223000D104E104F10471F7DF91CF91FF90EF90A9
:10224000DF90CF90089590E080E80FB6F8948093E7
:102250006100909361000FBE789484B5826084BD64
:1022600084B5816084BD85B5826085BD85B581609A
:1022700085BDEEE6F0E0808181608083E1E8F0E0FA
:102280001082808182608083808181608083E0E829
:10229000F0E080818160808308952DB73EB7809102
:1022A0000501909106012817390730F48DB79EB7C4
:1022B000909306018093050108950024552704C0DA
:1022C000080E591F880F991F009729F0769567957A
:1022D000B8F37105B9F7802D952F0895AA1BBB1B84
:1022E00051E107C0AA1FBB1FA617B70710F0A61B16
:1022F000B70B881F991F5A95A9F780959095BC0137
:10230000CD01089597FB072E16F4009406D077FDB3
:1023100008D0E4DF07FC05D03EF4909581959F4FEF
:102320000895709561957F4F0895A1E21A2EAA1B1A
:10233000BB1BFD010DC0AA1FBB1FEE1FFF1FA21775
:10234000B307E407F50720F0A21BB30BE40BF50B72
:10235000661F771F881F991F1A9469F760957095FB
:10236000809590959B01AC01BD01CF010895052E8C
:1023700097FB16F400940FD057FD05D0D6DF07FC6D
:1023800002D046F408C050954095309521953F4FB6
:102390004F4F5F4F089590958095709561957F4F51
:1023A0008F4F9F4F0895EE0FFF1F0590F491E02D82
:1023B0000994A0E0B0E0EEEDF1E1E4C0EC01688149
:1023C00079818A819B81611571058105910521F4CF
:1023D00064E279ED8BE597E02DE133EF41E050E0E9
:1023E000C6DF49015A0127EA31E440E050E0A7D0B6
:1023F00069017A01C501B4012CEE34EF4FEF5FEFB4
:102400009ED0022F132F9A01D701C601800F911F72
:10241000A21FB31FB7FF03C00197A109B04888836B
:102420009983AA83BB83BC01CD019F77CDB7DEB76B
:10243000ECE0C4C0BECF80E091E0BBCF6093000170
:102440007093010180930201909303010895FC01B0
:1024500088279927E89421912032E9F3293010F058
:102460002E30C8F32B3239F02D3231F4689403C08A
:1024700059D0820F911D219120532A30C8F31EF4A8
:10248000909581959F4F0895803209F0911154C025
:1024900080528F55E0F7089591114EC0803219F0A7
:1024A00089508550D0F70895FB01DC018D9105908E
:1024B00080190110D9F3990B0895FB01559155230B
:1024C000A9F0BF01DC014D9145174111E1F759F425
:1024D000CD010590002049F04D9140154111C9F3FF
:1024E000FB014111EFCF81E090E001970895FB01DE
:1024F000DC0102C001900D9241505040D8F7089580
:10250000DC0101C06D9341505040E0F70895FC019B
:102510008191861721F08823D9F79927089531975B
:10252000CF010895BC01880F991F880F991F860F4E
:10253000971F880F991F08959927882708956894F1
:102540000013E894A0E0B0E0E7EAF2E11DC0EFEF8D
:10255000E7F959016A015E23550FEE08FE2C870149
:102560009B01AC019E23990F660B762FCB013BD0CC
:10257000CDB7DEB7EAE024C02F923F924F925F9230
:102580006F927F928F929F92AF92BF92CF92DF9283
:10259000EF92FF920F931F93CF93DF93CDB7DEB7E8
:1025A000CA1BDB0B0FB6F894DEBF0FBECDBF09947C
:1025B0002A88398848885F846E847D848C849B84D3
:1025C000AA84B984C884DF80EE80FD800C811B81E1
:1025D000AA81B981CE0FD11D0FB6F894DEBF0FBE10
:1025E000CDBFED010895DF93CF939F92A0E49A2E83
:1025F0000024D001E001F00116950795F794E794C7
:10260000D794C794B794A79448F41068A20FB31F47
:10261000C41FD51FE61FF71F081E191E220F331FE8
:10262000441F551F661F771F881F991F9A9421F713
:102630009D01AE01BF01C00111249F90CF91DF9198
:062640000895F894FFCF9D
:102646000100000001FFFF000000004C0FF30E1018
:042656000F340F002E
:00000001FF
