:10000000A9C00000CFC00000CDC00000CBC00000E0
:10001000C9C00000C7C00000C5C00000C3C00000C8
:10002000C1C00000BFC00000BDC00000BBC00000D8
:10003000B9C00000B7C00000B5C00000B3C00000E8
:10004000B1C00000AFC00000ADC00000ABC00000F8
:10005000A9C000000C94870FA5C000000C94330FBA
:100060000C94FC0E9FC000009DC000009BC00000CF
:1000700099C000007061747465726E007069786573
:100080006C73006F666600646563617900737573F5
:100090007461696E0061747461636B0064656E7392
:1000A00069747900736D6F64650065666665637475
:1000B00000636D6F6465006F726465720074636FD6
:1000C0006C6F720073636F6C6F720070636F6C6F34
:1000D0007200220022002B41542B544F5049433DC3
:1000E00022004572726F72004F4B002B57494649F0
:1000F00020446973636F6E6E6563746564002B578B
:1001000049464920436F6E6E6563746564002B4DEC
:1001100051545420446973636F6E6E6563746564F3
:10012000002B4D51545420436F6E6E6563746564AB
:10013000000D0A0053797374656D20696E6974202F
:10014000646F6E652E0D0A52656164790D0A0000B8
:10015000FF0D740F11241FBECFEFD4E0DEBFCDBF63
:1001600011E0A0E0B1E0E0E7F4E202C005900D92FA
:10017000A231B107D9F723E0A2E1B1E001C01D929D
:10018000A930B207E1F710E0CAEAD0E004C0219735
:10019000FE010E943C11C83AD107C9F70E94D70D51
:1001A0000C9436122DCFFC01C99626E9DC011D9274
:1001B0002A95E9F7DF01A452BF4F24812C93608177
:1001C0007181E8C22F923F924F925F926F927F921D
:1001D0008F929F92AF92BF92CF92DF92EF92FF9257
:1001E0000F931F93CF93DF9300D000D01F92CDB712
:1001F000DEB76C011C018CED280E311CF1019081E1
:100200009150908391114FC0F60160817181611509
:10021000710509F43DC056019FE0A90EB11CF6011D
:10022000F996FD83EC837F0100E010E098E1492E10
:10023000512C612C712C2CE0822E912C1EC0962FFB
:100240008827B4010E9483106115F1E07F07F1F067
:10025000462FB501CE01019636D6BE016F5F7F4FA6
:10026000C701A3D40F5F1F4FF60160817181F3E0D6
:10027000EF0EF11C0617170778F40E94B211A301C4
:1002800092010E94CC106D307105C8F24FEFE1CFA2
:10029000C601C9969D838C838C819D817BD2F6019A
:1002A0008481F10180830F900F900F900F900F9039
:1002B000DF91CF911F910F91FF90EF90DF90CF9042
:1002C000BF90AF909F908F907F906F905F904F9076
:1002D0003F902F900895AF92BF92CF92DF92EF920E
:1002E000FF920F931F93CF93DF9300D01F92CDB750
:1002F000DEB77C015C018FE0A80EB11C85016701AF
:10030000EDE2CE0ED11CC8011CD40D5F1F4F0C15A1
:100310001D05C9F782E390E0F7019183808322E015
:1003200022871386148624E630E0318720872AE06E
:1003300030E033832283158214829783868381E29F
:10034000858783E0868720E040E06FEFCE0101964D
:1003500005D4BE016F5F7F4FC50127D420E04FEF6A
:1003600060E0CE010196FAD3BE016F5F7F4FC701F7
:1003700042961BD42FEF40E060E0CE010196EED311
:10038000BE016F5F7F4FC70145960FD40F900F904E
:100390000F90DF91CF911F910F91FF90EF90DF9021
:1003A000CF90BF90AF900895FC01658570E084E622
:1003B00090E00E9497106230710564F070AF67ABF7
:1003C00014AA13AA16AA15AADF01A452BF4F84814A
:1003D0008C93089582E090E090AF87ABF1CF4F927D
:1003E0005F926F927F928F929F92AF92BF92CF92C5
:1003F000DF92EF92FF920F931F93CF93DF9300D082
:100400001F92CDB7DEB78C015C018CEDA80EB11C3C
:10041000F50190819111BCC0F8018385823009F407
:1004200066C0F801608171816115710509F4B3C07E
:100430003801F9E36F0E711C6301E12CF12C4424A7
:100440004A94512C48018FE0880E911C2FC0681BE4
:1004500070E0F8018681978168177907E0F5C2019D
:100460000E949710462FB401CE0101962CD5BE01F3
:100470006F5F7F4FC60199D3F80185A996A90196B0
:1004800096AB85AB27A930AD8217930710F016AA5B
:1004900015AAFFEFEF1AFF0A83E0C80ED11CF8017E
:1004A00060817181E616F70608F07AC0F80185A927
:1004B00096A963A974A98617970709F465C08617DA
:1004C000970728F2861B682F70E0F80182819381DC
:1004D0006817790720F220E040E060E0CE01019645
:1004E0003DD3BE016F5F7F4FC6015FD3C5CF608133
:1004F00071816115710509F45FC0380199E3690ED6
:10050000711C6301E12CF12CF80183A994A98E0DD3
:100510009F1D668570E00E948310BC01660F771FE7
:10052000680F791F615F7F4F600F711FC6013DD358
:10053000FFEFEF1AFF0AF80160817181F3E0CF0E3F
:10054000D11CE616F70600F3F80183A994A90196D9
:1005500094AB83ABC3011ED1F8018481F501808384
:100560000F900F900F90DF91CF911F910F91FF90FF
:10057000EF90DF90CF90BF90AF909F908F907F9043
:100580006F905F904F900895B401C6010ED374CF61
:1005900091509083E5CF27A930ADC801C9963C01A1
:1005A000F80183A994A9019694AB83AB82179307B2
:1005B00088F214AA13AACECFC801C9963C01C4CFB1
:1005C000CF93DF93EC018E3C910510F0CDECD0E0A1
:1005D0000E94B21124E630E040E050E00E94CC10CE
:1005E0006333710530F4CE01860F971FDF91CF91F1
:1005F0000895E296CE01861B970BDF91CF91089567
:1006000098E030E00BC0289A22E02A95F1F728986C
:1006100024E02A95F1F7660F915071F0232F67FFC0
:10062000F2CF289A24E02A95F1F7289823E02A951A
:10063000F1F7660F915091F79091C80097FD3CC07B
:1006400098E030E00BC0289A22E02A95F1F728982C
:1006500024E02A95F1F7880F915071F0232F87FF3E
:10066000F2CF289A24E02A95F1F7289823E02A95DA
:10067000F1F7880F915091F78091C80087FD1CC059
:1006800088E020E00BC0289A92E09A95F1F728982C
:1006900094E09A95F1F7440F815071F0922F47FF43
:1006A000F2CF289A94E09A95F1F7289893E09A95DA
:1006B000F1F7440F815091F70895FC0180911201E8
:1006C000813009F063C0208198E040E00BC0289A97
:1006D00032E03A95F1F7289834E03A95F1F7220F95
:1006E000915071F0342F27FFF2CF289A34E03A95D9
:1006F000F1F7289833E03A95F1F7220F915091F7EE
:100700009091C80097FD41C0813009F441C020811B
:1007100098E040E00BC0289A32E03A95F1F728982B
:1007200034E03A95F1F7220F915071F0342F27FF02
:10073000F2CF289A34E03A95F1F7289833E03A95C9
:10074000F1F7220F915091F78091C80087FD1DC0ED
:10075000928188E030E00BC0289A22E02A95F1F7D8
:10076000289824E02A95F1F7990F815071F0232FF2
:1007700097FFF2CF289A24E02A95F1F7289823E0F2
:100780002A95F1F7990F815091F7089521819CCF17
:100790002181BECFFF920F931F93CF93DF93FFB6BC
:1007A000F89461157105A1F0EC018B01000F111F88
:1007B000600F711F8E01060F171F04C02396C0170C
:1007C000D10731F0CE0179DF8091C80087FFF6CFE5
:1007D000FFBEDF91CF911F910F91FF90089560951B
:1007E000653590F4262F220F260F362F330F330F47
:1007F000631B615030911201FC01313089F160833B
:100800001182FC01228308956A3AA8F46555262FC7
:10081000220F220FF62FF21B2F2F2150362F330FCE
:10082000630F30911201FC013130F9F411826083C1
:10083000FC01228308956A5A262F220F220FF62FD9
:10084000F21B2F2F2150362F330F630F30911201DF
:10085000FC01313079F060832183FC01128208951C
:1008600061831082FC012283089510826183FC0160
:100870002283089561832083FC0112820895EF9200
:10088000FF920F931F93CF93DF938C0124DD7801A8
:1008900089E3E80EF11C90911201E801EB96D80172
:1008A000DA96980121533F4FF70109C01C9210823C
:1008B0001882339623961396E217F30759F0913076
:1008C000A9F310821C921882339623961396E2178E
:1008D000F307A9F70E94DE0FF80165A776A787A79F
:1008E00090AB14AA13AA12AA11AA82E090E096ABC8
:1008F00085AB90AF87AB86E9F70111928A95E9F74E
:10090000DF91CF911F910F91FF90EF9008958F92FB
:100910009F92AF92BF92CF92DF92EF92FF920F938E
:100920001F93CF93DF93FC01C081D181209709F4FD
:1009300093C0DC01A452BF4F40E050E000E010E063
:10094000FA01F695E795F695E795E80FF91FE1535B
:10095000FF4F208130E0FA01E370FF27EE0FFF1F09
:1009600002C035952795EA95E2F7237029F42C917A
:10097000211102C00F5F1F4F4F5F5F4F11964C1741
:100980005D07F1F66115710509F466C001151105E1
:1009900009F462C0EC01C801861B970B9C012F5F14
:1009A0003F4F4901CE01805F9E4F5C0123E0C22E84
:1009B000D12CEE24E394F12C0E94B21128813981CC
:1009C00040E050E00E94CC10FB01F695E795F695CB
:1009D000E795EC0FFD1FE153FF4F40819B01237012
:1009E0003327220F331F842F90E0022E02C09595EB
:1009F00087950A94E2F78370F9F66C0F7D1FDB018F
:100A0000A452BF4F8C918111D7CFC601022E01C0D5
:100A1000880F0A94EAF780954823C70101C0880F20
:100A20002A95EAF7482B40838A819B818F3F910565
:100A300011F008F08FEFFB01E452FF4F8083F501C6
:100A4000808191810196918380830815190521F099
:100A50000150110909F0B0CFDF91CF911F910F9193
:100A6000FF90EF90DF90CF90BF90AF909F908F90CE
:100A70000895CF92DF92EF92FF920F931F93CF933F
:100A8000DF938C017C0189E3E80EF11C86E9D70134
:100A90001D928A95E9F7F801E153FF4F8DE0DF01E0
:100AA0001D928A95E9F7F801808191810097B1F054
:100AB0006801FCEDCF0ED11CC0E0D0E0D801189643
:100AC0008D919C9119977CDDF60181936F012196A0
:100AD000D8018D919C91C817D90780F3F8016585DD
:100AE00070E00E94721064E670E00E948310EB01D7
:100AF000E25FFE4F718360833296118210822097ED
:100B0000A1F00E94B211D8012D913C9140E050E03B
:100B10000E94CC10600F711FFB01E452FF4F8081D7
:100B2000882379F310822197EACF62E370E0C7014E
:100B3000DF91CF911F910F91FF90EF90DF90CF90B9
:100B400029CEFC0180911201813021F411821082A2
:100B5000128208951082118212820895FC01809100
:100B60001201813021F461834083228308956083E0
:100B7000418322830895FC01DB01809112018130C1
:100B800051F411968C91119781838C9180831296E8
:100B90008C91828308958C91808311968C9111970A
:100BA000818312968C9182830895FB01209112011A
:100BB000213059F42181DC0111962C931197208169
:100BC0002C932281FC01228308952081DC012C9347
:100BD000218111962C932281FC0122830895AF92EA
:100BE000BF92CF92DF92EF92FF920F931F93CF931A
:100BF000DF93FC01208131812115310511F16B0159
:100C00007C015C0159E3A50EB11C8501C0E0D0E078
:100C1000B601C801CADF2196F701208131810D5F3D
:100C20001F4FC217D307A0F3B901C501DF91CF91C0
:100C30001F910F91FF90EF90DF90CF90BF90AF90FA
:100C4000A9CDAC01475C5F4F5A01EECFAF92BF9286
:100C5000CF92DF92EF92FF920F931F93CF93DF9388
:100C600000D000D0CDB7DEB78C01DC011A962C91F4
:100C7000233009F485C040F02530D1F008F447C096
:100C8000263039F590DA05C0213079F1223009F5A6
:100C9000F0DE0F900F900F900F90DF91CF911F918A
:100CA0000F91FF90EF90DF90CF90BF90AF9008959D
:100CB000FC01E452FF4FDC0114968C918083319645
:100CC0001082E45AF10986E9DF011D928A95E9F75D
:100CD000E0CFF801F99686E9DF011D928A95E9F7E0
:100CE000EC55FF4F81E08083D4CFBC01615F7F4F23
:100CF000CE0101962C833FDFBE016F5F7F4FC8019D
:100D00006EDFF801E352FF4F2C812083C2CFFC013C
:100D1000F99686E9DF011D928A95E9F7D8018D9150
:100D20009C91892B39F17F01A12CB12C8CE390E0AF
:100D30006C01CE1ADF0A04C0EC0CFD1CE00EF11EA3
:100D4000F801668570E0C5010E948310BC01660F42
:100D5000771F680F791F615F7F4F600F711FC70199
:100D600024DFFFEFAF1ABF0AD8018D919C91A8161E
:100D7000B90610F3F801E352FF4F81E0808389CF79
:100D800013DB87CF8F929F92AF92BF92CF92DF9269
:100D9000EF92FF920F931F93CF93DF9300D01F9298
:100DA000CDB7DEB76C01DC016D917C9161157105E9
:100DB00009F43EC04C0199E3890E911C740100E0D6
:100DC00010E0D601A352BF4F5D01F5016081600FB5
:100DD000CE01019604DDBE016F5F7F4FC701E5DEE6
:100DE0000F5F1F4FD6016D917C91B3E0EB0EF11CAC
:100DF0000617170750F3F50180818F5F8083F60196
:100E0000E452FF4FD60114968C918083C401C2DC5A
:100E10000F900F900F90DF91CF911F910F91FF9046
:100E2000EF90DF90CF90BF90AF909F908F900895FC
:100E3000FC01F9964F0183529F4F5C01DCCFCF92AA
:100E4000DF92EF92FF920F931F93CF93DF937C017A
:100E5000EB0188819981F701918380838A819B814D
:100E6000938382838C819D81958384838E819F81EE
:100E70009783868388859985918780878A858287ED
:100E80008B8583878C8584878D8585878E858687EE
:100E90008701015F1F4F2F966701FDE2CF0ED11C26
:100EA000BE01C80182DE0D5F1F4F23960C151D0584
:100EB000B9F7C701DF91CF911F910F91FF90EF908C
:100EC000DF90CF90C3CE0F931F93CF93DF931F92EA
:100ED000CDB7DEB78C0149834EDE80911201498186
:100EE000D801813081F511966C9170E0242F30E0AB
:100EF000C9010E947210EFEFF0E0BF010E94831061
:100F0000D80111966C9311974C91642F70E0C90130
:100F10000E947210BF010E948310F8016083D80103
:100F200012966C9170E0C9010E9472106FEF70E030
:100F30000E948310F8016283C8010F90DF91CF9166
:100F40001F910F9108956C9170E0242F30E0C9013A
:100F50000E947210EFEFF0E0BF010E948310D801F1
:100F60006C9311964C91642F70E0C9010E9472102D
:100F7000BF010E948310F8016183D1CF2F923F926D
:100F80004F925F926F927F928F929F92AF92BF9299
:100F9000CF92DF92EF92FF920F931F93CF93DF9345
:100FA000CDB7DEB727970FB6F894DEBF0FBECDBF23
:100FB0005C01FC01608171816115710509F4F2C069
:100FC0006C01FCEDCF0ED11CC9969F838E833C0132
:100FD000E12CF12CF501E05FFE4FFD83EC83150160
:100FE000FFE02F0E311C23E0822E912C1FC0823097
:100FF00009F4C5C0833009F4A3C0813009F482C06C
:10100000EC81FD8180819181009719F00197918396
:101010008083FFEFEF1AFF0A8FEFC81AD80A93E018
:10102000690E711CE616F70608F0C3C08701169515
:101030000795169507950A0D1B1D01531F4FF801C3
:1010400020812701F3E04F225524440C551C822FA8
:1010500090E0042C02C0959587950A94E2F783707E
:10106000F6014081442319F24150F6014083823059
:1010700041F0F501833069F1813051F06081718177
:10108000C8CFB101C30191DDF50160817181C1CF8C
:10109000228133812115310589F380E091E0B90186
:1010A0000E948310C901841B91090E9472108F3F16
:1010B000910519F010F08FEF90E0482FB101CE01AB
:1010C000019601DFBE016F5F7F4FC3016EDDF50149
:1010D000D5CF268137812115310581F280E091E05D
:1010E000B9010E948310C901841B9109FBD740E01C
:1010F00051E0481B590B4F3F510501F3F8F24FEFF8
:1011000050E0DCCFB101C30150DDC401042C01C0AB
:10111000880F0A94EAF78095F8019081282F2923F7
:1011200082E090E001C0880F4A94EAF7822B808326
:10113000F5018481F6018083F5016081718169CFB9
:10114000C40101C0880F4A94EAF780952823F8016A
:10115000208380911201813011F51A8219821B823D
:10116000BE016F5F7F4FC30120DDF5018085918552
:1011700027DAF6018083F501608171814ACFC401CD
:1011800001C0880F4A94EAF7282BF8012083F50163
:101190008681F6018083F501608171813ACF1982E1
:1011A0001A82DDCF805F9E4F9D838C83F996FF83EB
:1011B000EE83EC81FD8120813181F501E25FFE4FFC
:1011C000808191812817390740F4BC01621B730BA1
:1011D000C5019DDBF501608171818E819F81DADA25
:1011E00027960FB6F894DEBF0FBECDBFDF91CF912B
:1011F0001F910F91FF90EF90DF90CF90BF90AF9035
:101200009F908F907F906F905F904F903F902F9026
:1012100008950F931F93CF93DF93EC019A8593303A
:10122000B9F148F0953071F0B0F1963011F5CE017A
:101230000E94E2000FC0913071F19230D1F4CE01E2
:101240009DDE08C0FE01E452FF4F80818150808303
:10125000882381F1B3D6DC01CB010A96A11DB11D13
:101260008DA79EA7AFA7B8ABDF91CF911F910F912C
:10127000089526E9CE01C996FC0111922A95E9F755
:1012800062E370E087DAFE01E352FF4F1082E2CFA3
:10129000CE01A5D8DFCF8E0103521F4FF801808108
:1012A0008823C1F262E370E0CE01C99673DAF801D7
:1012B0001082D0CFCE0166DDCDCFCF93DF93EC018E
:1012C0007DD66DA77EA78FA798ABCE01BFDCCE01E0
:1012D000DF91CF919ECF0F931F93CF93DF93EC01BC
:1012E0006DD60DA51EA52FA538A906171707280727
:1012F000390728F0DF91CF911F910F910895CE010A
:10130000DF91CF911F910F9184CFCF93DF93EC01A9
:101310000E946B011DA6CE01C2969FA78EA780E4F6
:1013200090E099AB88ABCE58DF4F19821882DF91DD
:10133000CF910895FC016115710569F077A766A743
:1013400040AB51ABCB01EE58FF4F1182108260E0F1
:1013500070E00C941712C29697A786A720E430E09D
:1013600031AB20AB40E450E0EE58FF4F11821082C9
:1013700060E070E00C9417128F929F92AF92BF9230
:10138000CF92DF92EF92FF920F931F93CF93DF9351
:1013900000D000D0CDB7DEB78C016B017A01FC0123
:1013A00095A5906295A76BEC70E0C6010E94F411C0
:1013B000892B89F1C701E2D7D82E6CE270E0C70112
:1013C0000E941E1201967C01D9D7482F6CE270E072
:1013D000C7014C830E941E120196D0D7282F4C8142
:1013E0006D2DCE010196BADBBE016F5F7F4FC80144
:1013F0000F96DBDB0F900F900F900F90DF91CF9146
:101400001F910F91FF90EF90DF90CF90BF90AF9022
:101410009F908F90089564EC70E0C601E5D7892B0A
:1014200001F1C701ABD7D82E6CE270E0C7010E9472
:101430001E1201967C01A2D7482F6CE270E0C70112
:101440004C83FCD701969AD7282F4C816D2DCE0165
:10145000019684DBBE016F5F7F4FC8014296A5DB1A
:10146000C9CF6DEB70E0C601BFD7892BF9F0C7017A
:1014700085D7D82E6CE270E0C701E0D701967C01D9
:101480007DD7482F6CE270E0C7014C83D7D7019617
:1014900075D7282F4C816D2DCE0101965FDBBE01E3
:1014A0006F5F7F4FC801459680DBA4CF67EB70E08C
:1014B000C6019AD7892B29F0C70160D78093120102
:1014C00099CF61EB70E0C6018FD7892B29F0C70156
:1014D00055D7F80183878ECF6AEA70E0C60184D7BA
:1014E000892B29F0C7014AD7F801828783CF64EAA4
:1014F00070E0C60179D7892B29F0C7013FD7F801E1
:10150000848778CF6CE970E0C6016ED7892B29F00B
:10151000C70134D7F80185876DCF65E970E0C60152
:1015200063D7892B31F0C70129D7F80193838283D0
:1015300061CF6DE870E0C60157D7892B31F0C70144
:101540001DD7F8019583848355CF67E870E0C60105
:101550004BD7892B31F0C70111D7F80197838683C8
:1015600049CF63E870E0C6013FD7892B31F0C7014E
:1015700005D7F801918780873DCF6CE770E0C60101
:1015800033D7892B31F0C701F9D6F80191838083D5
:1015900031CF64E770E0C60127D7892B09F42ACF41
:1015A0006801FFE0CF0ED11C912CE114F10409F485
:1015B00039C0C701E3D6882E6CE270E0C7013ED780
:1015C000009799F17C012FEFE21AF20AC701D6D6F3
:1015D000B82E6CE270E0C70131D7009731F17C0181
:1015E000EFEFEE1AFE0AC701C9D6A82E6CE270E032
:1015F000C70124D77C01892B19F0FFEFEF1AFF0AEE
:101600002A2D4B2D682DCE010196A8DABE016F5F01
:101610007F4FC601CADA939423E0C20ED11C8AE040
:101620009812C3CFF8019686E5CEE12CF12CE8CFD5
:10163000CF93DF93FC0125A525FF08C0EC01BC0179
:1016400087E891E0FCDB8DA58F7D8DA7DF91CF91A1
:1016500008958F929F92AF92BF92DF92EF92FF9286
:101660000F931F93CF93DF938C01509A5898519A00
:101670005998529A5A9A539A5B9A68EE73E080E0AE
:1016800090E0CED45298539840E052EC61E070E084
:1016900089E992E058D3599A68EE73E080E090E0CF
:1016A000BFD4589A7894780122E7E20EF11CF70132
:1016B00011821082F80140A951A960E070E086A56E
:1016C00097A5B5D67BD44B015C01F8EB8F0EFBE000
:1016D0009F1EA11CB11C89E992E09AD2EC01D12C89
:1016E0002EC0C335D10529F0DD2029F11C161D06B9
:1016F00014F5CE0162D6892B21F4CE0164D6892B54
:10170000C1F0F80126A537A5F70180819181AC01D0
:101710004F5F5F4F51834083F901E80FF91FC0838A
:10172000F801C6A5D7A564E371E0CE015DD6892B8B
:10173000C1F4DD24D39489E992E06AD2EC013ED46D
:10174000681579058A059B0560F2DF91CF911F919D
:101750000F91FF90EF90DF90BF90AF909F908F9090
:101760000895F80140A951A960E070E0CE015FD66C
:10177000F70111821082E9CF8F929F92AF92BF92B0
:10178000CF92DF92EF92FF920F931F93CF93DF934D
:101790008C0189E992E03CD2EC0110D44B015C0150
:1017A00025E0820E911CA11CB11CD7FDADC07801B3
:1017B00082E7E80EF11C12C0F70180819181F801E7
:1017C00020A931A92150310982179307D8F0F6D307
:1017D0004B015C0189E992E01BD2EC01EFD3681563
:1017E00079058A059B0520F51C161D062CF3F801CA
:1017F00080A991A90197F701208131812817390724
:1018000048F3E5CFF80126A537A5AC014F5F5F4F40
:10181000F70151834083F901E80FF91FC083CED34C
:101820004B015C01E5E08E0E911CA11CB11CDFCFC9
:10183000F801C6A4D7A4F6018081882309F464C006
:10184000C0E0D0E0C8018E589F4F5C017601EC0EDD
:10185000FD1E61E371E0C701C7D5009709F44EC0D2
:10186000FC011082F801C6A4D7A47601EC0EFD1E7F
:10187000F70101900020E9F79F012E193F092F5F22
:101880003F4FC20FD31F61E271E0C701A4D5892B7E
:10189000F9F4F80185A5826085A7F5018081918121
:1018A000C817D90798F211821082F80140A951A9EE
:1018B00060E070E0C601DF91CF911F910F91FF9022
:1018C000EF90DF90CF90BF90AF909F908F90AFC57B
:1018D0006EE071E0C7017FD5892B29F4F80185A559
:1018E0008D7F85A7DACF6EEF70E0C70174D5892BA5
:1018F000C1F4F80185A5846085A7CFCFF5014081AB
:101900005181C417D50718F1DF91CF911F910F9125
:10191000FF90EF90DF90CF90BF90AF909F908F900F
:1019200008956BEE70E0C70156D5892B59F068EE2B
:1019300070E0C70150D5892B11F5F80185A58860A5
:1019400085A7ABCFF80185A58B7F85A7A6CF4C1BBC
:101950005D0BB701C60162D5F501808191818C1BB9
:101960009D0B91838083F80140A951A94C1B5D0B0D
:1019700086A597A560E070E08C0F9D1F9CCF62EE5E
:1019800070E0C70131D5892B29F0F80185A5806168
:1019900085A783CF66ED70E0C70126D5009709F4CF
:1019A0007CCF6C01FBE0CF0ED11CF701108264EDFF
:1019B00070E0C60119D5009771F0FC0110827C011E
:1019C000F3E0EF0EF11C62ED70E0C7010DD500975A
:1019D00011F0FC011082A701B601C801CDDCF801AD
:1019E000C6A4D7A45ACF8091090390910A038A3ADA
:1019F000954569F02F9A64E670E080E090E010D39E
:101A00002F9864E670E080E090E00AD3F3CF089569
:101A1000EF92FF920F931F93CF93DF93EFB6F8945B
:101A2000882391F0F22E042F162FD82FC0E003C088
:101A3000CF5FCD1749F04F2D602F812F0E940003FB
:101A40009091C80097FFF4CFEFBEDF91CF911F9127
:101A50000F91FF90EF900895AF92BF92CF92DF92D7
:101A6000EF92FF920F931F93CF93DF930023D9F050
:101A7000A22EB42E162FD82F6701E12CF12CC0E036
:101A80002A2D4B2D612F8D2FC3DFC701B601C8D280
:101A900020E040E060E08D2FBBDFC701B601C0D27F
:101AA000CF5FC013EDCFDF91CF911F910F91FF90CA
:101AB000EF90DF90CF90BF90AF900895CF92DF92DC
:101AC000EF92FF920F9381E08EDF84EFE82EFF24E8
:101AD000F39403E020E240E060E082E3BDDF46E90A
:101AE00050E060EC71E083E191E024DC83E191E07F
:101AF000B0DD64D26B017C0128E8C20E23E1D21E66
:101B0000E11CF11C5BD26C157D058E059F0520F450
:101B10008091400181FF37C051D26B017C0128E8E0
:101B2000C20E23E1D21EE11CF11C48D26C157D05CA
:101B30008E059F0520F48091400181FD28C040E082
:101B400050E060E070E083E191E0F4DB87E891E051
:101B5000B4DB0FC083E191E00FDE83E191E068DD4B
:101B600087E891E0B8DB2AD2C616D706E806F90660
:101B700090F08091400181FDEDCF0F91FF90EF90AB
:101B8000DF90CF90089583E191E0F6DDBBCF83E154
:101B900091E0F2DDCACF81E026DF10D26B017C013B
:101BA00024EFC20E21E0D21EE11CF11CE2CF60D274
:101BB000279A2F9A209A289A509A5898519A599869
:101BC00068EE73E080E090E02BD284EFE82EFF24F3
:101BD000F39403E020E040E060E282E33DDF8AEA44
:101BE00095E590930A03809309037894209A20E066
:101BF00040E060E086E90CDF82E360DFFDCF62E376
:101C000070E087E891E00E943F0483E191E07DCBA2
:101C10004FB7F894FC01EC59FF4F2081DC01AB5920
:101C2000BF4F3C91231771F030E0DC01A20FB31FCE
:101C300094968C912F5F3F4F2F733327208390E032
:101C40004FBF08958FEF9FEFFBCFCF93DF93FC0142
:101C50007FB7F894DC01AB59BF4F9C91292F30E03E
:101C6000A9014F5F5F4F4F735527EF01CC59DF4FED
:101C70008881841749F0E20FF31F64A34C9381E03D
:101C80007FBFDF91CF91089580E07FBFDF91CF913B
:101C90000895FC014FB7F89422A183A1281771F091
:101CA00030E0DF01A20FB31F12968C912F5F3F4FE0
:101CB0002F71332722A390E04FBF08958FEF9FEF3E
:101CC000FBCFFC015FB7F89483A190E09C012F5FEC
:101CD0003F4F2F71332772A17217D9F0DF01A80F80
:101CE000B91F12966C9323A35FBF81E0EA59FF4F9F
:101CF000908190FD0DC0916090839091C900906299
:101D00009093C9009091C80090649093C800089582
:101D100008955FBF411103C080E0E8CF4FBF4FB7C8
:101D2000F89483A190E09C012F5F3F4F2F7132A167
:101D30002317A1F3DF01A80FB91F12966C9323A3F9
:101D40004FBF81E0D3CFCF92DF92EF92FF926A0133
:101D50007B014115514E61057105D1F08091C8009C
:101D600082608093C80060E079E08DE390E0A70195
:101D70009601F0D1DA01C9010197A109B109B6951F
:101D8000A795979587959C01211580E13807B0F0BC
:101D90008091C8008D7F8093C80060E874E88EE170
:101DA00090E0A7019601D6D1DA01C9010197A109F6
:101DB000B109B695A795979587959C013093CD006D
:101DC0002093CC008091C90080618093C9008091EC
:101DD000C90088608093C9008091C90080688093A1
:101DE000C9008091C9008F7D8093C9007894FF90CD
:101DF000EF90DF90CF9008951F920F920FB60F9241
:101E000011242F933F938F939F93EF93FF932FB7BB
:101E1000F8948091BB029091BC028917C1F090E0C8
:101E2000FC01E756FD4F328101968F71992780930F
:101E3000BB022FBF3093CE00FF91EF919F918F9106
:101E40003F912F910F900FBE0F901F9018952FBFAD
:101E50008091C9008F7D8093C9008091FF028E7FA1
:101E60008093FF02E9CF1F920F920FB60F921124B9
:101E70002F933F934F935F936F938F939F93EF9322
:101E8000FF938091C80082FD18C06091CE004FB7CB
:101E9000F8948091FE0290E09C012F5F3F4F2F73DA
:101EA00033275091FD025217C1F0FC01E756FD4F58
:101EB00064A32093FE024FBF02C08091CE00FF9129
:101EC000EF919F918F916F915F914F913F912F91E2
:101ED0000F900FBE0F901F9018954FBF8091FF027B
:101EE00082608093FF02EBCFE9E9F2E013A212A235
:101EF0001092FE021092FD028AE091E091838083AD
:101F0000EFEFF2E080818E7F8D7F808308951F92B6
:101F10000F920FB60F9211242F933F934F935F931D
:101F20006F937F938F939F93AF93BF93EF93FF93A1
:101F30008091010390910203A0910303B0910403E7
:101F40003091000323E0230F2D37A0F126E8230F63
:101F50000296A11DB11D209300038093010390936D
:101F60000203A0930303B0930403809105039091AF
:101F70000603A0910703B09108030196A11DB11DAE
:101F80008093050390930603A0930703B09308037F
:101F900099D0FF91EF91BF91AF919F918F917F91D8
:101FA0006F915F914F913F912F910F900FBE0F90C6
:101FB0001F9018950196A11DB11DCDCF2FB7F89494
:101FC00060910103709102038091030390910403D7
:101FD0002FBF08953FB7F8948091050390910603B1
:101FE000A0910703B091080326B5A89B05C02F3F19
:101FF00019F00196A11DB11D3FBFBA2FA92F982F2F
:102000008827820F911DA11DB11DBC01CD01660F56
:10201000771F881F991F660F771F881F991F0895C4
:10202000CF92DF92EF92FF92CF93DF936B017C010F
:10203000D1DFEB01C114D104E104F10491F0CADF56
:102040006C1B7D0B683E7340D0F381E0C81AD10849
:10205000E108F108C851DC4FC114D104E104F104D6
:1020600071F7DF91CF91FF90EF90DF90CF900895BF
:1020700090E080E80FB6F89480936100909361003F
:102080000FBE789484B5826084BD84B5816084BDC0
:1020900085B5826085BD85B5816085BDEEE6F0E0E1
:1020A000808181608083E1E8F0E01082808182603D
:1020B0008083808181608083E0E8F0E080818160BE
:1020C000808308952DB73EB780910401909105015A
:1020D0002817390730F48DB79EB790930501809388
:1020E000040108950024552704C0080E591F880FC5
:1020F000991F009729F076956795B8F37105B9F7A0
:10210000802D952F0895AA1BBB1B51E107C0AA1F64
:10211000BB1FA617B70710F0A61BB70B881F991F88
:102120005A95A9F780959095BC01CD01089597FB2C
:10213000072E16F4009406D077FD08D0E4DF07FCE4
:1021400005D03EF4909581959F4F089570956195C7
:102150007F4F0895A1E21A2EAA1BBB1BFD010DC0E3
:10216000AA1FBB1FEE1FFF1FA217B307E407F50747
:1021700020F0A21BB30BE40BF50B661F771F881F23
:10218000991F1A9469F760957095809590959B01B9
:10219000AC01BD01CF010895052E97FB16F4009404
:1021A0000FD057FD05D0D6DF07FC02D046F408C09B
:1021B00050954095309521953F4F4F4F5F4F089573
:1021C00090958095709561957F4F8F4F9F4F0895A3
:1021D00068940013E894A0E0B0E0E0EFF0E11DC0E7
:1021E000EFEFE7F959016A015E23550FEE08FE2C67
:1021F00087019B01AC019E23990F660B762FCB01C3
:1022000041D0CDB7DEB7EAE024C02F923F924F9283
:102210005F926F927F928F929F92AF92BF92CF9276
:10222000DF92EF92FF920F931F93CF93DF93CDB77F
:10223000DEB7CA1BDB0B0FB6F894DEBF0FBECDBFF7
:1022400009942A88398848885F846E847D848C84C8
:102250009B84AA84B984C884DF80EE80FD800C81D1
:102260001B81AA81B981CE0FD11D0FB6F894DEBFB4
:102270000FBECDBFED010895EE0FFF1F0590F49145
:10228000E02D0994DF93CF939F92A0E49A2E00242F
:10229000D001E001F00116950795F794E794D794E3
:1022A000C794B794A79448F41068A20FB31FC41F33
:1022B000D51FE61FF71F081E191E220F331F441FCC
:1022C000551F661F771F881F991F9A9421F79D013C
:1022D000AE01BF01C00111249F90CF91DF910895FD
:1022E000A0E0B0E0E5E7F1E196CFEC01688179810B
:1022F0008A819B81611571058105910521F464E254
:1023000079ED8BE597E02DE133EF41E050E044DFDC
:1023100049015A0127EA31E440E050E059DF690100
:102320007A01C501B4012CEE34EF4FEF5FEF50DFBF
:10233000022F132F9A01D701C601800F911FA21FF0
:10234000B31FB7FF03C00197A109B04888839983E1
:10235000AA83BB83BC01CD019F77CDB7DEB7ECE08C
:1023600076CFBECF80E091E0BBCF60930001709349
:10237000010180930201909303010895FC018827D5
:102380009927E89421912032E9F3293010F02E307A
:10239000C8F32B3239F02D3231F4689403C059D090
:1023A000820F911D219120532A30C8F31EF490957D
:1023B00081959F4F0895803209F0911154C0805249
:1023C0008F55E0F7089591114EC0803219F0895071
:1023D0008550D0F70895FB01DC018D91059080199F
:1023E0000110D9F3990B0895FB0155915523A9F0DC
:1023F000BF01DC014D9145174111E1F759F4CD01C1
:102400000590002049F04D9140154111C9F3FB01A1
:102410004111EFCF81E090E001970895FB01DC01CD
:1024200002C001900D9241505040D8F70895DC0150
:1024300001C06D9341505040E0F70895FC01819137
:10244000861721F08823D9F7992708953197CF016E
:102450000895BC01880F991F880F991F860F971F39
:10246000880F991F0895992788270895F894FFCF1A
:1024700001000000FFFF00000000610E080E250EA5
:02248000490E03
:00000001FF
